{
  "contractName": "Auction",
  "abi": [
    {
      "inputs": [
        {
          "internalType": "uint256",
          "name": "minPrice",
          "type": "uint256"
        },
        {
          "internalType": "uint256",
          "name": "numberOfBids",
          "type": "uint256"
        }
      ],
      "stateMutability": "nonpayable",
      "type": "constructor"
    },
    {
      "anonymous": false,
      "inputs": [
        {
          "indexed": true,
          "internalType": "address",
          "name": "_from",
          "type": "address"
        },
        {
          "indexed": false,
          "internalType": "uint256",
          "name": "_value",
          "type": "uint256"
        },
        {
          "indexed": false,
          "internalType": "uint256",
          "name": "_secret",
          "type": "uint256"
        },
        {
          "indexed": false,
          "internalType": "uint256",
          "name": "_mvalue",
          "type": "uint256"
        }
      ],
      "name": "BidRecvd",
      "type": "event"
    },
    {
      "anonymous": false,
      "inputs": [
        {
          "indexed": true,
          "internalType": "address",
          "name": "_from",
          "type": "address"
        },
        {
          "indexed": true,
          "internalType": "address",
          "name": "_winner",
          "type": "address"
        },
        {
          "indexed": false,
          "internalType": "uint256",
          "name": "_amount",
          "type": "uint256"
        }
      ],
      "name": "EndAuction",
      "type": "event"
    },
    {
      "anonymous": false,
      "inputs": [
        {
          "indexed": true,
          "internalType": "address",
          "name": "_from",
          "type": "address"
        },
        {
          "indexed": false,
          "internalType": "bytes32",
          "name": "_value",
          "type": "bytes32"
        }
      ],
      "name": "HashBid",
      "type": "event"
    },
    {
      "inputs": [],
      "name": "seller",
      "outputs": [
        {
          "internalType": "address payable",
          "name": "",
          "type": "address"
        }
      ],
      "stateMutability": "view",
      "type": "function"
    },
    {
      "inputs": [
        {
          "internalType": "bytes32",
          "name": "hashed",
          "type": "bytes32"
        }
      ],
      "name": "hashBid",
      "outputs": [],
      "stateMutability": "nonpayable",
      "type": "function"
    },
    {
      "inputs": [
        {
          "internalType": "uint256",
          "name": "value",
          "type": "uint256"
        },
        {
          "internalType": "uint256",
          "name": "secret",
          "type": "uint256"
        }
      ],
      "name": "Bid",
      "outputs": [],
      "stateMutability": "payable",
      "type": "function"
    },
    {
      "inputs": [],
      "name": "balanceof",
      "outputs": [
        {
          "internalType": "uint256",
          "name": "",
          "type": "uint256"
        }
      ],
      "stateMutability": "view",
      "type": "function"
    },
    {
      "inputs": [],
      "name": "endAuction",
      "outputs": [
        {
          "internalType": "uint256",
          "name": "",
          "type": "uint256"
        }
      ],
      "stateMutability": "nonpayable",
      "type": "function"
    }
  ],
  "bytecode": "0x608060405234801561001057600080fd5b50604051610da1380380610da18339818101604052604081101561003357600080fd5b8101908080519060200190929190805190602001909291905050508160018190555080600281905550336000806101000a81548173ffffffffffffffffffffffffffffffffffffffff021916908373ffffffffffffffffffffffffffffffffffffffff16021790555060008054906101000a900473ffffffffffffffffffffffffffffffffffffffff16600360006101000a81548173ffffffffffffffffffffffffffffffffffffffff021916908373ffffffffffffffffffffffffffffffffffffffff1602179055506001546004819055506001546005819055506001600660008060009054906101000a900473ffffffffffffffffffffffffffffffffffffffff1673ffffffffffffffffffffffffffffffffffffffff1673ffffffffffffffffffffffffffffffffffffffff16815260200190815260200160002060006101000a81548160ff0219169083151502179055505050610c08806101996000396000f3fe60806040526004361061004a5760003560e01c806308551a531461004f5780632980a5d31461009057806347a0375b146100bb578063c2444aea146100f3578063fe67a54b1461012e575b600080fd5b34801561005b57600080fd5b50610064610159565b604051808273ffffffffffffffffffffffffffffffffffffffff16815260200191505060405180910390f35b34801561009c57600080fd5b506100a561017d565b6040518082815260200191505060405180910390f35b6100f1600480360360408110156100d157600080fd5b810190808035906020019092919080359060200190929190505050610185565b005b3480156100ff57600080fd5b5061012c6004803603602081101561011657600080fd5b8101908080359060200190929190505050610543565b005b34801561013a57600080fd5b50610143610780565b6040518082815260200191505060405180910390f35b60008054906101000a900473ffffffffffffffffffffffffffffffffffffffff1681565b600047905090565b600060025411156101e1576040517f08c379a0000000000000000000000000000000000000000000000000000000008152600401808060200182810382526023815260200180610b8b6023913960400191505060405180910390fd5b60008290508234101561025c576040517f08c379a00000000000000000000000000000000000000000000000000000000081526004018080602001828103825260188152602001807f41756374696f6e206e6f7420656e6f756768206574686572000000000000000081525060200191505060405180910390fd5b3373ffffffffffffffffffffffffffffffffffffffff167f31b8efbf6589bb456445c732f3ca14bb27e3aa92ade9a0357a2a75859b4abbd4343373ffffffffffffffffffffffffffffffffffffffff16318460405180848152602001838152602001828152602001935050505060405180910390a260006102dd8484610b51565b9050600960003373ffffffffffffffffffffffffffffffffffffffff1673ffffffffffffffffffffffffffffffffffffffff168152602001908152602001600020548114610393576040517f08c379a000000000000000000000000000000000000000000000000000000000815260040180806020018281038252601d8152602001807f41756374696f6e2076616c75657320646f6573206e6f74206d6174636800000081525060200191505060405180910390fd5b81600860003373ffffffffffffffffffffffffffffffffffffffff1673ffffffffffffffffffffffffffffffffffffffff168152602001908152602001600020600082825401925050819055503373ffffffffffffffffffffffffffffffffffffffff1631600760003373ffffffffffffffffffffffffffffffffffffffff1673ffffffffffffffffffffffffffffffffffffffff168152602001908152602001600020600082825401925050819055503373ffffffffffffffffffffffffffffffffffffffff167f31b8efbf6589bb456445c732f3ca14bb27e3aa92ade9a0357a2a75859b4abbd4600760003373ffffffffffffffffffffffffffffffffffffffff1673ffffffffffffffffffffffffffffffffffffffff16815260200190815260200160002054863460405180848152602001838152602001828152602001935050505060405180910390a260045484111561053d5733600360006101000a81548173ffffffffffffffffffffffffffffffffffffffff021916908373ffffffffffffffffffffffffffffffffffffffff160217905550600454600581905550836004819055505b50505050565b600060025410156105bc576040517f08c379a00000000000000000000000000000000000000000000000000000000081526004018080602001828103825260168152602001807f41756374696f6e20656e64206f662042696464696e670000000000000000000081525060200191505060405180910390fd5b60001515600660003373ffffffffffffffffffffffffffffffffffffffff1673ffffffffffffffffffffffffffffffffffffffff16815260200190815260200160002060009054906101000a900460ff16151514610682576040517f08c379a00000000000000000000000000000000000000000000000000000000081526004018080602001828103825260168152602001807f43616e2073656e6420626964206f6e6c79206f6e63650000000000000000000081525060200191505060405180910390fd5b80600960003373ffffffffffffffffffffffffffffffffffffffff1673ffffffffffffffffffffffffffffffffffffffff168152602001908152602001600020819055503373ffffffffffffffffffffffffffffffffffffffff167fe2f270a0653f12b99bc22c7816a42b18f969adf5e0965ea9f7468c11a8111a0e826040518082815260200191505060405180910390a26001600660003373ffffffffffffffffffffffffffffffffffffffff1673ffffffffffffffffffffffffffffffffffffffff16815260200190815260200160002060006101000a81548160ff021916908315150217905550600160026000828254039250508190555050565b60008073ffffffffffffffffffffffffffffffffffffffff16600360009054906101000a900473ffffffffffffffffffffffffffffffffffffffff1673ffffffffffffffffffffffffffffffffffffffff161415610829576040517f08c379a0000000000000000000000000000000000000000000000000000000008152600401808060200182810382526025815260200180610bae6025913960400191505060405180910390fd5b6000600860003373ffffffffffffffffffffffffffffffffffffffff1673ffffffffffffffffffffffffffffffffffffffff1681526020019081526020016000205490506000600860003373ffffffffffffffffffffffffffffffffffffffff1673ffffffffffffffffffffffffffffffffffffffff168152602001908152602001600020819055506000811415610929576040517f08c379a00000000000000000000000000000000000000000000000000000000081526004018080602001828103825260198152602001807f41756374696f6e3a204e6f20416d6f756e74206973206475650000000000000081525060200191505060405180910390fd5b600360009054906101000a900473ffffffffffffffffffffffffffffffffffffffff1673ffffffffffffffffffffffffffffffffffffffff163373ffffffffffffffffffffffffffffffffffffffff161415610a6c57600554600454039050600360009054906101000a900473ffffffffffffffffffffffffffffffffffffffff1673ffffffffffffffffffffffffffffffffffffffff163373ffffffffffffffffffffffffffffffffffffffff167f3802989a3ce8bdbf94e0c180716e5d930e8737a79b63de0b437823b19f8feccc836040518082815260200191505060405180910390a360008114610a67573373ffffffffffffffffffffffffffffffffffffffff166108fc829081150290604051600060405180830381858888f19350505050158015610a5d573d6000803e3d6000fd5b5080915050610b4e565b610b4c565b600360009054906101000a900473ffffffffffffffffffffffffffffffffffffffff1673ffffffffffffffffffffffffffffffffffffffff163373ffffffffffffffffffffffffffffffffffffffff167f3802989a3ce8bdbf94e0c180716e5d930e8737a79b63de0b437823b19f8feccc836040518082815260200191505060405180910390a360008114610b4b573373ffffffffffffffffffffffffffffffffffffffff166108fc829081150290604051600060405180830381858888f19350505050158015610b41573d6000803e3d6000fd5b5080915050610b4e565b5b505b90565b6000828260405160200180838152602001828152602001925050506040516020818303038152906040528051906020012090509291505056fe41756374696f6e2042696464696e67207068617365206e6f7420636f6d706c6574656441756374696f6e2072657665616c207068617365206973206e6f7420636f6d706c65746564a2646970667358221220c94cc6a60147a087a5a8822fbebc853150d3f4481400610e4291b373a7da321164736f6c63430007010033",
  "immutableReferences": {},
  "source": "// SPDX-License-Identifier: MIT\n\npragma solidity >=0.4.22 <0.8.0;\n/// @title Contract for sealed bid second bid auction\n/// @dev All function calls are currently implemented without side effects\n\ncontract Auction {\n    \n\n    /// @notice Address of the person selling\n    address payable public seller;\n\n    /// @dev The minimum reserve price given by the seller\n    uint256 reservePrice;\n\n    /// @dev Variable for triggering the end of the bidding, can be replaced with time based system\n    uint256 endOfBidding;\n\n    /// @dev Address of highest bidder so far\n    address payable highBidder;\n\n    /// @dev Value of highest bid so far\n    uint256 highBid;\n\n    /// @dev Value of second highest bid so far\n    uint256 secondBid;\n\n    /// @dev Mapping used to check if the bid of a certain address has been processed\n    mapping(address => bool) bidCheck;\n\n    /// @dev Mapping balances of all bidders\n    mapping(address => uint256) balanceBidders;\n\n    /// @dev Mapping amount bid of all bidders\n    mapping(address => uint256) amountBid;\n    \n    /// @dev Mapping hashed bids of the bidders\n    mapping(address => bytes32) hashedBids;\n\n    /// @notice Event for receiving hashed bids\n    event HashBid(\n        address indexed _from,\n        bytes32 _value\n    );\n\n    /// @notice Event for receiving revealed bids\n    event BidRecvd(\n        address indexed _from,\n        uint256 _value,\n        uint256 _secret,\n        uint256 _mvalue\n\n    );\n\n    /// @notice Event for withdrawal of funds at auction end\n     event EndAuction(\n        address indexed _from,\n        address indexed _winner,\n        uint256 _amount\n    );\n\n    /// @notice Constructor to initialise minPrice of auction, and number of bids in the auction\n    constructor (uint256 minPrice, uint256 numberOfBids) public  {\n        \n        //Set reserve price\n        reservePrice = minPrice;\n\n        //In this case, set endOfBidding limited by number of bids\n        endOfBidding = numberOfBids;\n        seller = msg.sender;\n        \n        //Set default highest, second highest bids to the reserve price, and highest bidder to the seller\n        highBidder = seller;\n        highBid = reservePrice;\n        secondBid = reservePrice;\n        bidCheck[seller] = true;\n    }\n\n    /// @notice Function that recieves hashed bid\n    /// @param hashed the hash sent to the contract\n    function hashBid(bytes32 hashed) external  {\n        require(endOfBidding >= 0, \"Auction end of Bidding\");\n\n        // Each person can only bid once\n        require(bidCheck[msg.sender] == false, \"Can send bid only once\");\n\n        hashedBids[msg.sender] = hashed;\n        emit HashBid(msg.sender, hashed);\n\n        /// @notice Mark the account/address as checked, to prevent multiple bids\n        bidCheck[msg.sender] = true;\n\n        /// @notice Change bidding condition variable\n        endOfBidding -= 1;\n    }\n\n    /// @dev Function that hashes value and secret\n    /// @param value the value of the bid to be hashed\n    /// @param secret the key with which the value is hashed \n    function getHashValue(uint256 value, uint256 secret) pure internal returns(bytes32) {\n\n         return keccak256(abi.encodePacked(value,secret));\n\n    }\n    \n    /// @notice Function that receives the bid after the end of the auction \n    /// @param value the value of the bid as claimed by the sender\n    /// @param secret the secret with which the value was hashed to give the hashed value \n    function Bid(uint256 value, uint256 secret) external payable {\n        //The bidding condition should not fail\n        require(endOfBidding <= 0, \"Auction Bidding phase not completed\");\n\n        //The amount that is bid is sent as msg.value\n        uint256 amount = value;\n        require(msg.value >= value, \"Auction not enough ether\");\n\n        emit BidRecvd(msg.sender, msg.value, msg.sender.balance, amount);\n\n        bytes32 hashV = getHashValue(value, secret);\n\n        require(hashV == hashedBids[msg.sender], \"Auction values does not match\");\n\n        //Store the amount bid for later withdrawals incase of failure to win auction\n        amountBid[msg.sender] += amount;\n\n        //Storing the balance of each bidder\n        balanceBidders[msg.sender] += msg.sender.balance;\n\n        emit BidRecvd(msg.sender, balanceBidders[msg.sender], value, msg.value);\n\n        //If the bid is higher than the previously processed bids, update accordingly\n        if (value > highBid) {\n            //The bidder is now the highest bidder, the previous highest bid is the second highest bid\n            highBidder = msg.sender;\n            secondBid = highBid;\n            highBid = value;\n        }\n        \n    }\n\n    /// @notice Function that returns the balance of the sender\n    function balanceof() external view returns(uint){\n        \n        return address(this).balance;\n    }\n    \n   \n    /// @notice End auction function that accounts can use to withdraw funds used in the bidding if they failed to win the auction\n    function endAuction() external returns(uint256) {\n\n        require(highBidder != address(0), \"Auction reveal phase is not completed\");\n        \n        uint256 returnamount = amountBid[msg.sender];\n\n        //The amount owed is reset to 0\n        amountBid[msg.sender] = 0;\n\n        //Require withdrawal not be allowed if no money is owed\n        require(returnamount != 0, \"Auction: No Amount is due\");\n\n        //Allow highest bidder to withdraw excess money\n        if(msg.sender == highBidder){\n            returnamount = highBid - secondBid;\n            emit EndAuction(msg.sender, highBidder, returnamount);\n            if (returnamount != 0) {\n                msg.sender.transfer(returnamount);\n                return returnamount;\n            }\n        }\n        //Allow losing bidders to withdraw their entire funds\n        else {\n            emit EndAuction(msg.sender, highBidder, returnamount);\n            if (returnamount != 0) {\n                 msg.sender.transfer(returnamount);\n                 return returnamount;\n            }\n           \n        }\n\n    }\n   \n}",
  "sourcePath": "/home/shradha/Blockchain_QueensRevenge/contracts/Auction.sol",
  "compiler": {
    "name": "solc",
    "version": "0.7.1+commit.f4a555be.Emscripten.clang"
  },
  "schemaVersion": "3.2.4",
  "updatedAt": "2020-09-10T16:03:52.352Z",
  "devdoc": {
    "details": "All function calls are currently implemented without side effects",
    "kind": "dev",
    "methods": {
      "Bid(uint256,uint256)": {
        "params": {
          "secret": "the secret with which the value was hashed to give the hashed value ",
          "value": "the value of the bid as claimed by the sender"
        }
      },
      "hashBid(bytes32)": {
        "params": {
          "hashed": "the hash sent to the contract"
        }
      }
    },
    "stateVariables": {
      "amountBid": {
        "details": "Mapping amount bid of all bidders"
      },
      "balanceBidders": {
        "details": "Mapping balances of all bidders"
      },
      "bidCheck": {
        "details": "Mapping used to check if the bid of a certain address has been processed"
      },
      "endOfBidding": {
        "details": "Variable for triggering the end of the bidding, can be replaced with time based system"
      },
      "hashedBids": {
        "details": "Mapping hashed bids of the bidders"
      },
      "highBid": {
        "details": "Value of highest bid so far"
      },
      "highBidder": {
        "details": "Address of highest bidder so far"
      },
      "reservePrice": {
        "details": "The minimum reserve price given by the seller"
      },
      "secondBid": {
        "details": "Value of second highest bid so far"
      }
    },
    "title": "Contract for sealed bid second bid auction",
    "version": 1
  },
  "userdoc": {
    "events": {
      "BidRecvd(address,uint256,uint256,uint256)": {
        "notice": "Event for receiving revealed bids"
      },
      "EndAuction(address,address,uint256)": {
        "notice": "Event for withdrawal of funds at auction end"
      },
      "HashBid(address,bytes32)": {
        "notice": "Event for receiving hashed bids"
      }
    },
    "kind": "user",
    "methods": {
      "Bid(uint256,uint256)": {
        "notice": "Function that receives the bid after the end of the auction "
      },
      "balanceof()": {
        "notice": "Function that returns the balance of the sender"
      },
      "constructor": {
        "notice": "Constructor to initialise minPrice of auction, and number of bids in the auction"
      },
      "endAuction()": {
        "notice": "End auction function that accounts can use to withdraw funds used in the bidding if they failed to win the auction"
      },
      "hashBid(bytes32)": {
        "notice": "Function that recieves hashed bid"
      },
      "seller()": {
        "notice": "Address of the person selling"
      }
    },
    "version": 1
  }
}