{
  "contractName": "Auction",
  "abi": [
    {
      "inputs": [
        {
          "internalType": "uint256",
          "name": "minPrice",
          "type": "uint256"
        },
        {
          "internalType": "uint256",
          "name": "numberOfBids",
          "type": "uint256"
        }
      ],
      "payable": false,
      "stateMutability": "nonpayable",
      "type": "constructor"
    },
    {
      "constant": true,
      "inputs": [
        {
          "internalType": "address",
          "name": "",
          "type": "address"
        }
      ],
      "name": "amountBid",
      "outputs": [
        {
          "internalType": "uint256",
          "name": "",
          "type": "uint256"
        }
      ],
      "payable": false,
      "stateMutability": "view",
      "type": "function"
    },
    {
      "constant": true,
      "inputs": [
        {
          "internalType": "address",
          "name": "",
          "type": "address"
        }
      ],
      "name": "balanceBidders",
      "outputs": [
        {
          "internalType": "uint256",
          "name": "",
          "type": "uint256"
        }
      ],
      "payable": false,
      "stateMutability": "view",
      "type": "function"
    },
    {
      "constant": true,
      "inputs": [
        {
          "internalType": "address",
          "name": "",
          "type": "address"
        }
      ],
      "name": "bidCheck",
      "outputs": [
        {
          "internalType": "bool",
          "name": "",
          "type": "bool"
        }
      ],
      "payable": false,
      "stateMutability": "view",
      "type": "function"
    },
    {
      "constant": true,
      "inputs": [],
      "name": "endOfBidding",
      "outputs": [
        {
          "internalType": "uint256",
          "name": "",
          "type": "uint256"
        }
      ],
      "payable": false,
      "stateMutability": "view",
      "type": "function"
    },
    {
      "constant": true,
      "inputs": [],
      "name": "highBid",
      "outputs": [
        {
          "internalType": "uint256",
          "name": "",
          "type": "uint256"
        }
      ],
      "payable": false,
      "stateMutability": "view",
      "type": "function"
    },
    {
      "constant": true,
      "inputs": [],
      "name": "highBidder",
      "outputs": [
        {
          "internalType": "address",
          "name": "",
          "type": "address"
        }
      ],
      "payable": false,
      "stateMutability": "view",
      "type": "function"
    },
    {
      "constant": true,
      "inputs": [],
      "name": "reservePrice",
      "outputs": [
        {
          "internalType": "uint256",
          "name": "",
          "type": "uint256"
        }
      ],
      "payable": false,
      "stateMutability": "view",
      "type": "function"
    },
    {
      "constant": true,
      "inputs": [],
      "name": "secondBid",
      "outputs": [
        {
          "internalType": "uint256",
          "name": "",
          "type": "uint256"
        }
      ],
      "payable": false,
      "stateMutability": "view",
      "type": "function"
    },
    {
      "constant": true,
      "inputs": [],
      "name": "seller",
      "outputs": [
        {
          "internalType": "address",
          "name": "",
          "type": "address"
        }
      ],
      "payable": false,
      "stateMutability": "view",
      "type": "function"
    },
    {
      "constant": false,
      "inputs": [],
      "name": "hashBid",
      "outputs": [],
      "payable": false,
      "stateMutability": "nonpayable",
      "type": "function"
    },
    {
      "constant": false,
      "inputs": [],
      "name": "Bid",
      "outputs": [],
      "payable": true,
      "stateMutability": "payable",
      "type": "function"
    },
    {
      "constant": true,
      "inputs": [],
      "name": "balanceof",
      "outputs": [
        {
          "internalType": "uint256",
          "name": "",
          "type": "uint256"
        }
      ],
      "payable": false,
      "stateMutability": "view",
      "type": "function"
    },
    {
      "constant": false,
      "inputs": [],
      "name": "endAuction",
      "outputs": [],
      "payable": true,
      "stateMutability": "payable",
      "type": "function"
    }
  ],
  "bytecode": "0x608060405234801561001057600080fd5b5060405161098d38038061098d8339818101604052604081101561003357600080fd5b8101908080519060200190929190805190602001909291905050508160018190555080600281905550336000806101000a81548173ffffffffffffffffffffffffffffffffffffffff021916908373ffffffffffffffffffffffffffffffffffffffff1602179055506000809054906101000a900473ffffffffffffffffffffffffffffffffffffffff16600360006101000a81548173ffffffffffffffffffffffffffffffffffffffff021916908373ffffffffffffffffffffffffffffffffffffffff1602179055506001546004819055506001546005819055506001600660008060009054906101000a900473ffffffffffffffffffffffffffffffffffffffff1673ffffffffffffffffffffffffffffffffffffffff1673ffffffffffffffffffffffffffffffffffffffff16815260200190815260200160002060006101000a81548160ff02191690831515021790555050506107f38061019a6000396000f3fe6080604052600436106100c25760003560e01c80636e6452cb1161007f578063b6cc986f11610059578063b6cc986f146102e5578063bb644d4114610310578063db2e1eed14610375578063fe67a54b146103a0576100c2565b80636e6452cb1461024b5780639251254214610255578063a5cf651f146102ba576100c2565b806308551a53146100c75780630da3d0e21461011e5780632916cb02146101875780632980a5d3146101b25780633ce123dc146101dd5780635cbef7ee14610234575b600080fd5b3480156100d357600080fd5b506100dc6103aa565b604051808273ffffffffffffffffffffffffffffffffffffffff1673ffffffffffffffffffffffffffffffffffffffff16815260200191505060405180910390f35b34801561012a57600080fd5b5061016d6004803603602081101561014157600080fd5b81019080803573ffffffffffffffffffffffffffffffffffffffff1690602001909291905050506103cf565b604051808215151515815260200191505060405180910390f35b34801561019357600080fd5b5061019c6103ef565b6040518082815260200191505060405180910390f35b3480156101be57600080fd5b506101c76103f5565b6040518082815260200191505060405180910390f35b3480156101e957600080fd5b506101f26103fd565b604051808273ffffffffffffffffffffffffffffffffffffffff1673ffffffffffffffffffffffffffffffffffffffff16815260200191505060405180910390f35b34801561024057600080fd5b50610249610423565b005b610253610425565b005b34801561026157600080fd5b506102a46004803603602081101561027857600080fd5b81019080803573ffffffffffffffffffffffffffffffffffffffff169060200190929190505050610654565b6040518082815260200191505060405180910390f35b3480156102c657600080fd5b506102cf61066c565b6040518082815260200191505060405180910390f35b3480156102f157600080fd5b506102fa610672565b6040518082815260200191505060405180910390f35b34801561031c57600080fd5b5061035f6004803603602081101561033357600080fd5b81019080803573ffffffffffffffffffffffffffffffffffffffff169060200190929190505050610678565b6040518082815260200191505060405180910390f35b34801561038157600080fd5b5061038a610690565b6040518082815260200191505060405180910390f35b6103a8610696565b005b6000809054906101000a900473ffffffffffffffffffffffffffffffffffffffff1681565b60066020528060005260406000206000915054906101000a900460ff1681565b60025481565b600047905090565b600360009054906101000a900473ffffffffffffffffffffffffffffffffffffffff1681565b565b60003490506000600254141561043a57600080fd5b60011515600660003373ffffffffffffffffffffffffffffffffffffffff1673ffffffffffffffffffffffffffffffffffffffff16815260200190815260200160002060009054906101000a900460ff161515141561049857600080fd5b80600860003373ffffffffffffffffffffffffffffffffffffffff1673ffffffffffffffffffffffffffffffffffffffff168152602001908152602001600020819055503373ffffffffffffffffffffffffffffffffffffffff1631600760003373ffffffffffffffffffffffffffffffffffffffff1673ffffffffffffffffffffffffffffffffffffffff1681526020019081526020016000206000828254019250508190555080600760003373ffffffffffffffffffffffffffffffffffffffff1673ffffffffffffffffffffffffffffffffffffffff16815260200190815260200160002054101561058c57600080fd5b6004548111156105e85733600360006101000a81548173ffffffffffffffffffffffffffffffffffffffff021916908373ffffffffffffffffffffffffffffffffffffffff160217905550600454600581905550806004819055505b6001600660003373ffffffffffffffffffffffffffffffffffffffff1673ffffffffffffffffffffffffffffffffffffffff16815260200190815260200160002060006101000a81548160ff021916908315150217905550600160026000828254039250508190555050565b60076020528060005260406000206000915090505481565b60055481565b60045481565b60086020528060005260406000206000915090505481565b60015481565b600360009054906101000a900473ffffffffffffffffffffffffffffffffffffffff1673ffffffffffffffffffffffffffffffffffffffff163373ffffffffffffffffffffffffffffffffffffffff1614156106f157600080fd5b3373ffffffffffffffffffffffffffffffffffffffff166108fc600860003373ffffffffffffffffffffffffffffffffffffffff1673ffffffffffffffffffffffffffffffffffffffff168152602001908152602001600020549081150290604051600060405180830381858888f19350505050158015610776573d6000803e3d6000fd5b506000600860003373ffffffffffffffffffffffffffffffffffffffff1673ffffffffffffffffffffffffffffffffffffffff1681526020019081526020016000208190555056fea265627a7a7231582075302cca4f4d015238f6e00c66d2429eda892d8e5fecd9634e42c059a28b947964736f6c63430005100032",
  "source": "pragma solidity >=0.4.22 <0.8.0;\ncontract Auction {\n    \n    //Address of the person selling\n    address public seller;\n\n    //The minimum reserve price given by the seller\n    uint256 public reservePrice;\n\n    //Variable for triggering the end of the bidding, can be replaced with time based system\n    uint256 public endOfBidding;\n\n    //Address of highest bidder so far\n    address public highBidder;\n\n    //Value of highest bid so far\n    uint256 public highBid;\n\n    //Value of second highest bid so far\n    uint256 public secondBid;\n\n    //Mapping that is used to check if the bid of a certain address has been processed\n    mapping(address => bool) public bidCheck;\n\n    //Mapping of the balances of all the bidders\n    mapping(address => uint256) public balanceBidders;\n\n    //Mapping of the balances of all the bidders\n    mapping(address => uint256) public amountBid;\n    \n    //Constructor\n    constructor (uint256 minPrice, uint256 numberOfBids) public {\n        \n        //Set reserve price\n        reservePrice = minPrice;\n\n        //In this case, set endOfBidding limited by number of bids\n        endOfBidding = numberOfBids;\n\n        seller = msg.sender;\n        \n        //Set default highest,second highest bids to the reserve price, and highest bidder to the seller\n        highBidder = seller;\n        highBid = reservePrice;\n        secondBid = reservePrice;\n        bidCheck[seller] = true;\n    }\n\n    //Function that recieves hashed bid\n    function hashBid() public {\n        \n    }\n    //Function that accounts use to make bids\n    function Bid() public payable {\n        \n        //The amount that is bid is sent as msg.value\n        uint256 amount = msg.value;\n\n        //The bidding condition should not fail\n        require(endOfBidding != 0);\n\n        //Each person can only bid once\n        require(bidCheck[msg.sender] != true);\n\n        //Store the amount bid for later withdrawals incase of failure to win auction\n        amountBid[msg.sender] = amount;\n\n        //Storing the balance of each bidder\n        balanceBidders[msg.sender] += msg.sender.balance;\n\n        //The balance available in the account of the bidder should be greater than or equal to the amount bid\n        require(balanceBidders[msg.sender] >= amount);\n\n        //If the bid is higher than the previously processed bids, update accordingly\n        if (amount > highBid) {\n            //The bidder is now the highest bidder, the previous highest bid is the second highest bid\n            highBidder = msg.sender;\n            secondBid = highBid;\n            highBid = amount;\n        }\n        //Mark the account/address as checked, to prevent multiple bids\n        bidCheck[msg.sender] = true;\n\n        //Change bidding condition variable\n        endOfBidding -= 1;\n    }\n\n    //Fucntion used to check balance of the smart contract\n    function balanceof() external view returns(uint){\n        \n        return address(this).balance;\n    }\n\n    //End auction function that accounts can use to withdraw funds used in the bidding if they failed to win the auction\n    function endAuction() public payable{\n        \n        //The highest bidder is not allowed to attempt withdrawal\n        require(msg.sender != highBidder);\n        \n        msg.sender.transfer(amountBid[msg.sender]);\n        \n        //The amount owed is reset to 0\n        amountBid[msg.sender] = 0;\n    }\n}",
  "sourcePath": "/home/shaik/BC/Ass1/Blockchain_QueensRevenge/contracts/Auction.sol",
  "compiler": {
    "name": "solc",
    "version": "0.5.16+commit.9c3226ce.Emscripten.clang"
  },
  "schemaVersion": "3.2.4",
  "updatedAt": "2020-09-01T07:47:39.927Z",
  "networkType": "ethereum",
  "devdoc": {
    "methods": {}
  },
  "userdoc": {
    "methods": {}
  }
}