{
  "contractName": "Auction",
  "abi": [
    {
      "inputs": [
        {
          "internalType": "uint256",
          "name": "minPrice",
          "type": "uint256"
        },
        {
          "internalType": "uint256",
          "name": "numberOfBids",
          "type": "uint256"
        }
      ],
      "payable": false,
      "stateMutability": "nonpayable",
      "type": "constructor"
    },
    {
      "constant": true,
      "inputs": [
        {
          "internalType": "address",
          "name": "",
          "type": "address"
        }
      ],
      "name": "amountBid",
      "outputs": [
        {
          "internalType": "uint256",
          "name": "",
          "type": "uint256"
        }
      ],
      "payable": false,
      "stateMutability": "view",
      "type": "function"
    },
    {
      "constant": true,
      "inputs": [
        {
          "internalType": "address",
          "name": "",
          "type": "address"
        }
      ],
      "name": "balanceBidders",
      "outputs": [
        {
          "internalType": "uint256",
          "name": "",
          "type": "uint256"
        }
      ],
      "payable": false,
      "stateMutability": "view",
      "type": "function"
    },
    {
      "constant": true,
      "inputs": [
        {
          "internalType": "address",
          "name": "",
          "type": "address"
        }
      ],
      "name": "bidCheck",
      "outputs": [
        {
          "internalType": "bool",
          "name": "",
          "type": "bool"
        }
      ],
      "payable": false,
      "stateMutability": "view",
      "type": "function"
    },
    {
      "constant": true,
      "inputs": [],
      "name": "check",
      "outputs": [
        {
          "internalType": "bytes",
          "name": "",
          "type": "bytes"
        }
      ],
      "payable": false,
      "stateMutability": "view",
      "type": "function"
    },
    {
      "constant": true,
      "inputs": [],
      "name": "endOfBidding",
      "outputs": [
        {
          "internalType": "uint256",
          "name": "",
          "type": "uint256"
        }
      ],
      "payable": false,
      "stateMutability": "view",
      "type": "function"
    },
    {
      "constant": true,
      "inputs": [
        {
          "internalType": "address",
          "name": "",
          "type": "address"
        }
      ],
      "name": "hashedBids",
      "outputs": [
        {
          "internalType": "bytes32",
          "name": "",
          "type": "bytes32"
        }
      ],
      "payable": false,
      "stateMutability": "view",
      "type": "function"
    },
    {
      "constant": true,
      "inputs": [],
      "name": "highBid",
      "outputs": [
        {
          "internalType": "uint256",
          "name": "",
          "type": "uint256"
        }
      ],
      "payable": false,
      "stateMutability": "view",
      "type": "function"
    },
    {
      "constant": true,
      "inputs": [],
      "name": "highBidder",
      "outputs": [
        {
          "internalType": "address",
          "name": "",
          "type": "address"
        }
      ],
      "payable": false,
      "stateMutability": "view",
      "type": "function"
    },
    {
      "constant": true,
      "inputs": [],
      "name": "reservePrice",
      "outputs": [
        {
          "internalType": "uint256",
          "name": "",
          "type": "uint256"
        }
      ],
      "payable": false,
      "stateMutability": "view",
      "type": "function"
    },
    {
      "constant": true,
      "inputs": [],
      "name": "secondBid",
      "outputs": [
        {
          "internalType": "uint256",
          "name": "",
          "type": "uint256"
        }
      ],
      "payable": false,
      "stateMutability": "view",
      "type": "function"
    },
    {
      "constant": true,
      "inputs": [],
      "name": "seller",
      "outputs": [
        {
          "internalType": "address",
          "name": "",
          "type": "address"
        }
      ],
      "payable": false,
      "stateMutability": "view",
      "type": "function"
    },
    {
      "constant": false,
      "inputs": [
        {
          "internalType": "bytes32",
          "name": "hashed",
          "type": "bytes32"
        }
      ],
      "name": "hashBid",
      "outputs": [],
      "payable": false,
      "stateMutability": "nonpayable",
      "type": "function"
    },
    {
      "constant": false,
      "inputs": [],
      "name": "Bid",
      "outputs": [],
      "payable": true,
      "stateMutability": "payable",
      "type": "function"
    },
    {
      "constant": true,
      "inputs": [],
      "name": "balanceof",
      "outputs": [
        {
          "internalType": "uint256",
          "name": "",
          "type": "uint256"
        }
      ],
      "payable": false,
      "stateMutability": "view",
      "type": "function"
    },
    {
      "constant": true,
      "inputs": [
        {
          "internalType": "uint256",
          "name": "x",
          "type": "uint256"
        }
      ],
      "name": "toBytes",
      "outputs": [
        {
          "internalType": "bytes",
          "name": "b",
          "type": "bytes"
        }
      ],
      "payable": false,
      "stateMutability": "pure",
      "type": "function"
    },
    {
      "constant": false,
      "inputs": [],
      "name": "endAuction",
      "outputs": [],
      "payable": true,
      "stateMutability": "payable",
      "type": "function"
    }
  ],
  "bytecode": "0x608060405234801561001057600080fd5b50604051610d46380380610d468339818101604052604081101561003357600080fd5b8101908080519060200190929190805190602001909291905050508160018190555080600281905550336000806101000a81548173ffffffffffffffffffffffffffffffffffffffff021916908373ffffffffffffffffffffffffffffffffffffffff1602179055506000809054906101000a900473ffffffffffffffffffffffffffffffffffffffff16600360006101000a81548173ffffffffffffffffffffffffffffffffffffffff021916908373ffffffffffffffffffffffffffffffffffffffff1602179055506001546004819055506001546005819055506001600660008060009054906101000a900473ffffffffffffffffffffffffffffffffffffffff1673ffffffffffffffffffffffffffffffffffffffff1673ffffffffffffffffffffffffffffffffffffffff16815260200190815260200160002060006101000a81548160ff0219169083151502179055505050610bac8061019a6000396000f3fe6080604052600436106100f35760003560e01c8063925125421161008a578063c2444aea11610059578063c2444aea146104d3578063db2e1eed1461050e578063f4c4537314610539578063fe67a54b1461059e576100f3565b806392512542146103b3578063a5cf651f14610418578063b6cc986f14610443578063bb644d411461046e576100f3565b80633ce123dc116100c65780633ce123dc1461020e5780636e6452cb14610265578063775a8f5e1461026f578063919840ad14610323576100f3565b806308551a53146100f85780630da3d0e21461014f5780632916cb02146101b85780632980a5d3146101e3575b600080fd5b34801561010457600080fd5b5061010d6105a8565b604051808273ffffffffffffffffffffffffffffffffffffffff1673ffffffffffffffffffffffffffffffffffffffff16815260200191505060405180910390f35b34801561015b57600080fd5b5061019e6004803603602081101561017257600080fd5b81019080803573ffffffffffffffffffffffffffffffffffffffff1690602001909291905050506105cd565b604051808215151515815260200191505060405180910390f35b3480156101c457600080fd5b506101cd6105ed565b6040518082815260200191505060405180910390f35b3480156101ef57600080fd5b506101f86105f3565b6040518082815260200191505060405180910390f35b34801561021a57600080fd5b506102236105fb565b604051808273ffffffffffffffffffffffffffffffffffffffff1673ffffffffffffffffffffffffffffffffffffffff16815260200191505060405180910390f35b61026d610621565b005b34801561027b57600080fd5b506102a86004803603602081101561029257600080fd5b81019080803590602001909291905050506107c3565b6040518080602001828103825283818151815260200191508051906020019080838360005b838110156102e85780820151818401526020810190506102cd565b50505050905090810190601f1680156103155780820380516001836020036101000a031916815260200191505b509250505060405180910390f35b34801561032f57600080fd5b5061033861086f565b6040518080602001828103825283818151815260200191508051906020019080838360005b8381101561037857808201518184015260208101905061035d565b50505050905090810190601f1680156103a55780820380516001836020036101000a031916815260200191505b509250505060405180910390f35b3480156103bf57600080fd5b50610402600480360360208110156103d657600080fd5b81019080803573ffffffffffffffffffffffffffffffffffffffff16906020019092919050505061090d565b6040518082815260200191505060405180910390f35b34801561042457600080fd5b5061042d610925565b6040518082815260200191505060405180910390f35b34801561044f57600080fd5b5061045861092b565b6040518082815260200191505060405180910390f35b34801561047a57600080fd5b506104bd6004803603602081101561049157600080fd5b81019080803573ffffffffffffffffffffffffffffffffffffffff169060200190929190505050610931565b6040518082815260200191505060405180910390f35b3480156104df57600080fd5b5061050c600480360360208110156104f657600080fd5b8101908080359060200190929190505050610949565b005b34801561051a57600080fd5b50610523610990565b6040518082815260200191505060405180910390f35b34801561054557600080fd5b506105886004803603602081101561055c57600080fd5b81019080803573ffffffffffffffffffffffffffffffffffffffff169060200190929190505050610996565b6040518082815260200191505060405180910390f35b6105a66109ae565b005b6000809054906101000a900473ffffffffffffffffffffffffffffffffffffffff1681565b60066020528060005260406000206000915054906101000a900460ff1681565b60025481565b600047905090565b600360009054906101000a900473ffffffffffffffffffffffffffffffffffffffff1681565b6000349050600960003373ffffffffffffffffffffffffffffffffffffffff1673ffffffffffffffffffffffffffffffffffffffff168152602001908152602001600020548160405160200180828152602001915050604051602081830303815290604052805190602001201461069757600080fd5b3373ffffffffffffffffffffffffffffffffffffffff1631600760003373ffffffffffffffffffffffffffffffffffffffff1673ffffffffffffffffffffffffffffffffffffffff168152602001908152602001600020600082825401925050819055506004548111156107575733600360006101000a81548173ffffffffffffffffffffffffffffffffffffffff021916908373ffffffffffffffffffffffffffffffffffffffff160217905550600454600581905550806004819055505b6001600660003373ffffffffffffffffffffffffffffffffffffffff1673ffffffffffffffffffffffffffffffffffffffff16815260200190815260200160002060006101000a81548160ff021916908315150217905550600160026000828254039250508190555050565b606060206040519080825280601f01601f1916602001820160405280156107f95781602001600182028038833980820191505090505b50905060008090505b60208110156108695780601f0360080260020a838161081d57fe5b0460f81b82828151811061082d57fe5b60200101907effffffffffffffffffffffffffffffffffffffffffffffffffffffffffffff1916908160001a9053508080600101915050610802565b50919050565b600a8054600181600116156101000203166002900480601f0160208091040260200160405190810160405280929190818152602001828054600181600116156101000203166002900480156109055780601f106108da57610100808354040283529160200191610905565b820191906000526020600020905b8154815290600101906020018083116108e857829003601f168201915b505050505081565b60076020528060005260406000206000915090505481565b60055481565b60045481565b60086020528060005260406000206000915090505481565b80600960003373ffffffffffffffffffffffffffffffffffffffff1673ffffffffffffffffffffffffffffffffffffffff1681526020019081526020016000208190555050565b60015481565b60096020528060005260406000206000915090505481565b6000600860003373ffffffffffffffffffffffffffffffffffffffff1673ffffffffffffffffffffffffffffffffffffffff1681526020019081526020016000205414156109fb57600080fd5b600360009054906101000a900473ffffffffffffffffffffffffffffffffffffffff1673ffffffffffffffffffffffffffffffffffffffff163373ffffffffffffffffffffffffffffffffffffffff161415610aa95760006005546004540390503373ffffffffffffffffffffffffffffffffffffffff166108fc829081150290604051600060405180830381858888f19350505050158015610aa2573d6000803e3d6000fd5b5050610b30565b3373ffffffffffffffffffffffffffffffffffffffff166108fc600860003373ffffffffffffffffffffffffffffffffffffffff1673ffffffffffffffffffffffffffffffffffffffff168152602001908152602001600020549081150290604051600060405180830381858888f19350505050158015610b2e573d6000803e3d6000fd5b505b6000600860003373ffffffffffffffffffffffffffffffffffffffff1673ffffffffffffffffffffffffffffffffffffffff1681526020019081526020016000208190555056fea265627a7a723158203a3b4d5784cb2a0b4694d60f23f1ff7a66c0c94ee031bfef0bff0d21aff819de64736f6c63430005100032",
  "source": "pragma solidity >=0.4.22 <0.8.0;\ncontract Auction {\n    \n    //Address of the person selling\n    address public seller;\n\n    //The minimum reserve price given by the seller\n    uint256 public reservePrice;\n\n    //Variable for triggering the end of the bidding, can be replaced with time based system\n    uint256 public endOfBidding;\n\n    //Address of highest bidder so far\n    address public highBidder;\n\n    //Value of highest bid so far\n    uint256 public highBid;\n\n    //Value of second highest bid so far\n    uint256 public secondBid;\n\n    //Mapping that is used to check if the bid of a certain address has been processed\n    mapping(address => bool) public bidCheck;\n\n    //Mapping of the balances of all the bidders\n    mapping(address => uint256) public balanceBidders;\n\n    //Mapping of the balances of all the bidders\n    mapping(address => uint256) public amountBid;\n    \n    //Mapping of the hashed bids of the bidders\n    mapping(address => bytes32) public hashedBids;\n    \n    bytes public check;\n    //Constructor\n    constructor (uint256 minPrice, uint256 numberOfBids) public {\n        \n        //Set reserve price\n        reservePrice = minPrice;\n\n        //In this case, set endOfBidding limited by number of bids\n        endOfBidding = numberOfBids;\n\n        seller = msg.sender;\n        \n        //Set default highest,second highest bids to the reserve price, and highest bidder to the seller\n        highBidder = seller;\n        highBid = reservePrice;\n        secondBid = reservePrice;\n        bidCheck[seller] = true;\n    }\n\n    //Function that recieves hashed bid\n    function hashBid(bytes32 hashed) public {\n        hashedBids[msg.sender] = hashed;\n\n    }\n    //Function that accounts use to make bids\n    function Bid() public payable {\n\n        //The amount that is bid is sent as msg.value\n        uint256 amount = msg.value;\n        //bytes memory amount_bytes = toBytes(amount);\n        //check = amount_bytes;\n        require(keccak256(abi.encodePacked(amount)) == hashedBids[msg.sender]);\n\n        //The bidding condition should not fail\n        //require(endOfBidding != 0);\n\n        //Each person can only bid once\n        //require(bidCheck[msg.sender] != true);\n\n        //Store the amount bid for later withdrawals incase of failure to win auction\n        //amountBid[msg.sender] = amount;\n\n        //Storing the balance of each bidder\n        balanceBidders[msg.sender] += msg.sender.balance;\n\n        //The balance available in the account of the bidder should be greater than or equal to the amount bid\n        //require(balanceBidders[msg.sender] >= amount);\n\n        //If the bid is higher than the previously processed bids, update accordingly\n        if (amount > highBid) {\n            //The bidder is now the highest bidder, the previous highest bid is the second highest bid\n            highBidder = msg.sender;\n            secondBid = highBid;\n            highBid = amount;\n        }\n        //Mark the account/address as checked, to prevent multiple bids\n        bidCheck[msg.sender] = true;\n\n        //Change bidding condition variable\n        endOfBidding -= 1;\n    }\n\n    //Fucntion used to check balance of the smart contract\n    function balanceof() external view returns(uint){\n        \n        return address(this).balance;\n    }\n    \n    //Uint to bytes conversion function\n    function toBytes(uint256 x) public pure returns (bytes memory b) {\n        b = new bytes(32);\n        for (uint i = 0; i < 32; i++) {\n        b[i] = byte(uint8(x / (2**(8*(31 - i))))); \n        }\n    }\n    //End auction function that accounts can use to withdraw funds used in the bidding if they failed to win the auction\n    function endAuction() public payable{\n\n        //Require that withdrawal not be allowed if no money is owed\n        require(amountBid[msg.sender] != 0);\n        \n        //Allow highest bidder to withdraw excess money\n        if(msg.sender == highBidder){\n            uint256 returnamount = highBid - secondBid;\n            msg.sender.transfer(returnamount);\n        }\n        //Allow losing bidders to withdraw their entire funds\n        else {\n            msg.sender.transfer(amountBid[msg.sender]);\n        }\n        //The amount owed is reset to 0\n        amountBid[msg.sender] = 0;\n    }\n}",
  "sourcePath": "/home/shaik/BC/Blockchain_QueensRevenge/contracts/Auction.sol",
  "compiler": {
    "name": "solc",
    "version": "0.5.16+commit.9c3226ce.Emscripten.clang"
  },
  "schemaVersion": "3.2.4",
  "updatedAt": "2020-09-01T23:51:37.309Z",
  "devdoc": {
    "methods": {}
  },
  "userdoc": {
    "methods": {}
  }
}