{
  "contractName": "Auction",
  "abi": [
    {
      "inputs": [
        {
          "internalType": "uint256",
          "name": "minPrice",
          "type": "uint256"
        },
        {
          "internalType": "uint256",
          "name": "numberOfBids",
          "type": "uint256"
        }
      ],
      "payable": false,
      "stateMutability": "nonpayable",
      "type": "constructor"
    },
    {
      "constant": true,
      "inputs": [
        {
          "internalType": "address",
          "name": "",
          "type": "address"
        }
      ],
      "name": "balanceBidders",
      "outputs": [
        {
          "internalType": "uint256",
          "name": "",
          "type": "uint256"
        }
      ],
      "payable": false,
      "stateMutability": "view",
      "type": "function"
    },
    {
      "constant": true,
      "inputs": [
        {
          "internalType": "address",
          "name": "",
          "type": "address"
        }
      ],
      "name": "bidCheck",
      "outputs": [
        {
          "internalType": "bool",
          "name": "",
          "type": "bool"
        }
      ],
      "payable": false,
      "stateMutability": "view",
      "type": "function"
    },
    {
      "constant": true,
      "inputs": [],
      "name": "endOfBidding",
      "outputs": [
        {
          "internalType": "uint256",
          "name": "",
          "type": "uint256"
        }
      ],
      "payable": false,
      "stateMutability": "view",
      "type": "function"
    },
    {
      "constant": true,
      "inputs": [],
      "name": "highBid",
      "outputs": [
        {
          "internalType": "uint256",
          "name": "",
          "type": "uint256"
        }
      ],
      "payable": false,
      "stateMutability": "view",
      "type": "function"
    },
    {
      "constant": true,
      "inputs": [],
      "name": "highBidder",
      "outputs": [
        {
          "internalType": "address",
          "name": "",
          "type": "address"
        }
      ],
      "payable": false,
      "stateMutability": "view",
      "type": "function"
    },
    {
      "constant": true,
      "inputs": [],
      "name": "reservePrice",
      "outputs": [
        {
          "internalType": "uint256",
          "name": "",
          "type": "uint256"
        }
      ],
      "payable": false,
      "stateMutability": "view",
      "type": "function"
    },
    {
      "constant": true,
      "inputs": [],
      "name": "secondBid",
      "outputs": [
        {
          "internalType": "uint256",
          "name": "",
          "type": "uint256"
        }
      ],
      "payable": false,
      "stateMutability": "view",
      "type": "function"
    },
    {
      "constant": true,
      "inputs": [],
      "name": "seller",
      "outputs": [
        {
          "internalType": "address",
          "name": "",
          "type": "address"
        }
      ],
      "payable": false,
      "stateMutability": "view",
      "type": "function"
    },
    {
      "constant": false,
      "inputs": [],
      "name": "Bid",
      "outputs": [],
      "payable": true,
      "stateMutability": "payable",
      "type": "function"
    },
    {
      "constant": false,
      "inputs": [],
      "name": "receive",
      "outputs": [],
      "payable": true,
      "stateMutability": "payable",
      "type": "function"
    },
    {
      "constant": true,
      "inputs": [],
      "name": "balanceof",
      "outputs": [
        {
          "internalType": "uint256",
          "name": "",
          "type": "uint256"
        }
      ],
      "payable": false,
      "stateMutability": "view",
      "type": "function"
    },
    {
      "constant": false,
      "inputs": [],
      "name": "endAuction",
      "outputs": [],
      "payable": true,
      "stateMutability": "payable",
      "type": "function"
    }
  ],
  "bytecode": "0x608060405234801561001057600080fd5b506040516107653803806107658339818101604052604081101561003357600080fd5b8101908080519060200190929190805190602001909291905050508160018190555080600281905550336000806101000a81548173ffffffffffffffffffffffffffffffffffffffff021916908373ffffffffffffffffffffffffffffffffffffffff1602179055506000809054906101000a900473ffffffffffffffffffffffffffffffffffffffff16600360006101000a81548173ffffffffffffffffffffffffffffffffffffffff021916908373ffffffffffffffffffffffffffffffffffffffff1602179055506001546004819055506001546005819055506001600660008060009054906101000a900473ffffffffffffffffffffffffffffffffffffffff1673ffffffffffffffffffffffffffffffffffffffff1673ffffffffffffffffffffffffffffffffffffffff16815260200190815260200160002060006101000a81548160ff02191690831515021790555050506105cb8061019a6000396000f3fe6080604052600436106100a75760003560e01c806392512542116100645780639251254214610223578063a3e76c0f14610288578063a5cf651f14610292578063b6cc986f146102bd578063db2e1eed146102e8578063fe67a54b14610313576100a7565b806308551a53146100ac5780630da3d0e2146101035780632916cb021461016c5780632980a5d3146101975780633ce123dc146101c25780636e6452cb14610219575b600080fd5b3480156100b857600080fd5b506100c161031d565b604051808273ffffffffffffffffffffffffffffffffffffffff1673ffffffffffffffffffffffffffffffffffffffff16815260200191505060405180910390f35b34801561010f57600080fd5b506101526004803603602081101561012657600080fd5b81019080803573ffffffffffffffffffffffffffffffffffffffff169060200190929190505050610342565b604051808215151515815260200191505060405180910390f35b34801561017857600080fd5b50610181610362565b6040518082815260200191505060405180910390f35b3480156101a357600080fd5b506101ac610368565b6040518082815260200191505060405180910390f35b3480156101ce57600080fd5b506101d7610370565b604051808273ffffffffffffffffffffffffffffffffffffffff1673ffffffffffffffffffffffffffffffffffffffff16815260200191505060405180910390f35b610221610396565b005b34801561022f57600080fd5b506102726004803603602081101561024657600080fd5b81019080803573ffffffffffffffffffffffffffffffffffffffff169060200190929190505050610560565b6040518082815260200191505060405180910390f35b610290610578565b005b34801561029e57600080fd5b506102a761057a565b6040518082815260200191505060405180910390f35b3480156102c957600080fd5b506102d2610580565b6040518082815260200191505060405180910390f35b3480156102f457600080fd5b506102fd610586565b6040518082815260200191505060405180910390f35b61031b61058c565b005b6000809054906101000a900473ffffffffffffffffffffffffffffffffffffffff1681565b60066020528060005260406000206000915054906101000a900460ff1681565b60025481565b600047905090565b600360009054906101000a900473ffffffffffffffffffffffffffffffffffffffff1681565b6000349050600060025414156103ab57600080fd5b3373ffffffffffffffffffffffffffffffffffffffff1631600760003373ffffffffffffffffffffffffffffffffffffffff1673ffffffffffffffffffffffffffffffffffffffff16815260200190815260200160002060008282540192505081905550600154600760003373ffffffffffffffffffffffffffffffffffffffff1673ffffffffffffffffffffffffffffffffffffffff16815260200190815260200160002054101561045d57600080fd5b80600760003373ffffffffffffffffffffffffffffffffffffffff1673ffffffffffffffffffffffffffffffffffffffff1681526020019081526020016000205410156104a957600080fd5b6004548111156105055733600360006101000a81548173ffffffffffffffffffffffffffffffffffffffff021916908373ffffffffffffffffffffffffffffffffffffffff160217905550600454600581905550806004819055505b6001600660003373ffffffffffffffffffffffffffffffffffffffff1673ffffffffffffffffffffffffffffffffffffffff16815260200190815260200160002060006101000a81548160ff02191690831515021790555050565b60076020528060005260406000206000915090505481565b565b60055481565b60045481565b60015481565b600060028190555056fea265627a7a72315820d90fc78e15cad07162d0e3b030cf0c40432262e03df8e6c6c8080dd7b3b4824164736f6c63430005100032",
  "source": "pragma solidity >=0.4.22 <0.8.0;\ncontract Auction {\n    //Address of the person selling\n    address public seller;\n\n    //The minimum reserve price given by the seller\n    uint256 public reservePrice;\n\n    //Variable for triggering the end of the bidding, can be replaced with time based system\n    uint256 public endOfBidding;\n\n    //Address of highest bidder so far\n    address public highBidder;\n\n    //Value of highest bid so far\n    uint256 public highBid;\n\n    //Value of second highest bid so far\n    uint256 public secondBid;\n\n    //Mapping that is used to check if the bid of a certain address has been processed\n    mapping(address => bool) public bidCheck;\n\n    //Mapping of the balances of all the bidders\n    mapping(address => uint256) public balanceBidders;\n\n    //Constructor\n    constructor (uint256 minPrice, uint256 numberOfBids) public {\n        //Set reserve price\n        reservePrice = minPrice;\n\n        //In this case, set endOfBidding limited by number of bids\n        endOfBidding = numberOfBids;\n\n        seller = msg.sender;\n        \n        //Set default highest,second highest bids to the reserve price, and highest bidder to the seller\n        highBidder = seller;\n        highBid = reservePrice;\n        secondBid = reservePrice;\n        bidCheck[seller] = true;\n    }\n\n    function Bid() public payable {\n        uint256 amount = msg.value;\n        require(endOfBidding != 0);\n        //require(bidCheck[msg.sender] != true);\n        balanceBidders[msg.sender] += msg.sender.balance;\n        require(balanceBidders[msg.sender] >= reservePrice);\n        require(balanceBidders[msg.sender] >= amount);\n        if (amount > highBid) {\n            \n            highBidder = msg.sender;\n            secondBid = highBid;\n            highBid = amount;\n        }\n        bidCheck[msg.sender] = true;\n        //endOfBidding -= 1;\n    }\n    function receive() external payable {\n        \n    }\n    function balanceof() external view returns(uint){\n        return address(this).balance;\n    }\n    function endAuction() public payable{\n        endOfBidding = 0;\n    }\n}",
  "sourcePath": "/home/shaik/BC/Ass1/Blockchain_QueensRevenge/contracts/Auction.sol",
  "compiler": {
    "name": "solc",
    "version": "0.5.16+commit.9c3226ce.Emscripten.clang"
  },
  "schemaVersion": "3.2.4",
  "updatedAt": "2020-08-31T18:28:15.762Z",
  "networkType": "ethereum",
  "devdoc": {
    "methods": {}
  },
  "userdoc": {
    "methods": {}
  }
}