{
  "contractName": "Auction",
  "abi": [
    {
      "inputs": [
        {
          "internalType": "uint256",
          "name": "minPrice",
          "type": "uint256"
        },
        {
          "internalType": "uint256",
          "name": "numberOfBids",
          "type": "uint256"
        }
      ],
      "payable": false,
      "stateMutability": "nonpayable",
      "type": "constructor"
    },
    {
      "constant": true,
      "inputs": [
        {
          "internalType": "address",
          "name": "",
          "type": "address"
        }
      ],
      "name": "amountBid",
      "outputs": [
        {
          "internalType": "uint256",
          "name": "",
          "type": "uint256"
        }
      ],
      "payable": false,
      "stateMutability": "view",
      "type": "function"
    },
    {
      "constant": true,
      "inputs": [
        {
          "internalType": "address",
          "name": "",
          "type": "address"
        }
      ],
      "name": "balanceBidders",
      "outputs": [
        {
          "internalType": "uint256",
          "name": "",
          "type": "uint256"
        }
      ],
      "payable": false,
      "stateMutability": "view",
      "type": "function"
    },
    {
      "constant": true,
      "inputs": [
        {
          "internalType": "address",
          "name": "",
          "type": "address"
        }
      ],
      "name": "bidCheck",
      "outputs": [
        {
          "internalType": "bool",
          "name": "",
          "type": "bool"
        }
      ],
      "payable": false,
      "stateMutability": "view",
      "type": "function"
    },
    {
      "constant": true,
      "inputs": [],
      "name": "endOfBidding",
      "outputs": [
        {
          "internalType": "uint256",
          "name": "",
          "type": "uint256"
        }
      ],
      "payable": false,
      "stateMutability": "view",
      "type": "function"
    },
    {
      "constant": true,
      "inputs": [],
      "name": "highBid",
      "outputs": [
        {
          "internalType": "uint256",
          "name": "",
          "type": "uint256"
        }
      ],
      "payable": false,
      "stateMutability": "view",
      "type": "function"
    },
    {
      "constant": true,
      "inputs": [],
      "name": "highBidder",
      "outputs": [
        {
          "internalType": "address",
          "name": "",
          "type": "address"
        }
      ],
      "payable": false,
      "stateMutability": "view",
      "type": "function"
    },
    {
      "constant": true,
      "inputs": [],
      "name": "reservePrice",
      "outputs": [
        {
          "internalType": "uint256",
          "name": "",
          "type": "uint256"
        }
      ],
      "payable": false,
      "stateMutability": "view",
      "type": "function"
    },
    {
      "constant": true,
      "inputs": [],
      "name": "secondBid",
      "outputs": [
        {
          "internalType": "uint256",
          "name": "",
          "type": "uint256"
        }
      ],
      "payable": false,
      "stateMutability": "view",
      "type": "function"
    },
    {
      "constant": true,
      "inputs": [],
      "name": "seller",
      "outputs": [
        {
          "internalType": "address",
          "name": "",
          "type": "address"
        }
      ],
      "payable": false,
      "stateMutability": "view",
      "type": "function"
    },
    {
      "constant": false,
      "inputs": [],
      "name": "Bid",
      "outputs": [],
      "payable": true,
      "stateMutability": "payable",
      "type": "function"
    },
    {
      "constant": true,
      "inputs": [],
      "name": "balanceof",
      "outputs": [
        {
          "internalType": "uint256",
          "name": "",
          "type": "uint256"
        }
      ],
      "payable": false,
      "stateMutability": "view",
      "type": "function"
    },
    {
      "constant": false,
      "inputs": [],
      "name": "endAuction",
      "outputs": [],
      "payable": true,
      "stateMutability": "payable",
      "type": "function"
    }
  ],
  "bytecode": "0x608060405234801561001057600080fd5b506040516109073803806109078339818101604052604081101561003357600080fd5b8101908080519060200190929190805190602001909291905050508160018190555080600281905550336000806101000a81548173ffffffffffffffffffffffffffffffffffffffff021916908373ffffffffffffffffffffffffffffffffffffffff1602179055506000809054906101000a900473ffffffffffffffffffffffffffffffffffffffff16600360006101000a81548173ffffffffffffffffffffffffffffffffffffffff021916908373ffffffffffffffffffffffffffffffffffffffff1602179055506001546004819055506001546005819055506001600660008060009054906101000a900473ffffffffffffffffffffffffffffffffffffffff1673ffffffffffffffffffffffffffffffffffffffff1673ffffffffffffffffffffffffffffffffffffffff16815260200190815260200160002060006101000a81548160ff021916908315150217905550505061076d8061019a6000396000f3fe6080604052600436106100a75760003560e01c806392512542116100645780639251254214610223578063a5cf651f14610288578063b6cc986f146102b3578063bb644d41146102de578063db2e1eed14610343578063fe67a54b1461036e576100a7565b806308551a53146100ac5780630da3d0e2146101035780632916cb021461016c5780632980a5d3146101975780633ce123dc146101c25780636e6452cb14610219575b600080fd5b3480156100b857600080fd5b506100c1610378565b604051808273ffffffffffffffffffffffffffffffffffffffff1673ffffffffffffffffffffffffffffffffffffffff16815260200191505060405180910390f35b34801561010f57600080fd5b506101526004803603602081101561012657600080fd5b81019080803573ffffffffffffffffffffffffffffffffffffffff16906020019092919050505061039d565b604051808215151515815260200191505060405180910390f35b34801561017857600080fd5b506101816103bd565b6040518082815260200191505060405180910390f35b3480156101a357600080fd5b506101ac6103c3565b6040518082815260200191505060405180910390f35b3480156101ce57600080fd5b506101d76103cb565b604051808273ffffffffffffffffffffffffffffffffffffffff1673ffffffffffffffffffffffffffffffffffffffff16815260200191505060405180910390f35b6102216103f1565b005b34801561022f57600080fd5b506102726004803603602081101561024657600080fd5b81019080803573ffffffffffffffffffffffffffffffffffffffff16906020019092919050505061066e565b6040518082815260200191505060405180910390f35b34801561029457600080fd5b5061029d610686565b6040518082815260200191505060405180910390f35b3480156102bf57600080fd5b506102c861068c565b6040518082815260200191505060405180910390f35b3480156102ea57600080fd5b5061032d6004803603602081101561030157600080fd5b81019080803573ffffffffffffffffffffffffffffffffffffffff169060200190929190505050610692565b6040518082815260200191505060405180910390f35b34801561034f57600080fd5b506103586106aa565b6040518082815260200191505060405180910390f35b6103766106b0565b005b6000809054906101000a900473ffffffffffffffffffffffffffffffffffffffff1681565b60066020528060005260406000206000915054906101000a900460ff1681565b60025481565b600047905090565b600360009054906101000a900473ffffffffffffffffffffffffffffffffffffffff1681565b60003490506000600254141561040657600080fd5b60011515600660003373ffffffffffffffffffffffffffffffffffffffff1673ffffffffffffffffffffffffffffffffffffffff16815260200190815260200160002060009054906101000a900460ff161515141561046457600080fd5b80600860003373ffffffffffffffffffffffffffffffffffffffff1673ffffffffffffffffffffffffffffffffffffffff168152602001908152602001600020819055503373ffffffffffffffffffffffffffffffffffffffff1631600760003373ffffffffffffffffffffffffffffffffffffffff1673ffffffffffffffffffffffffffffffffffffffff16815260200190815260200160002060008282540192505081905550600154600760003373ffffffffffffffffffffffffffffffffffffffff1673ffffffffffffffffffffffffffffffffffffffff16815260200190815260200160002054101561055a57600080fd5b80600760003373ffffffffffffffffffffffffffffffffffffffff1673ffffffffffffffffffffffffffffffffffffffff1681526020019081526020016000205410156105a657600080fd5b6004548111156106025733600360006101000a81548173ffffffffffffffffffffffffffffffffffffffff021916908373ffffffffffffffffffffffffffffffffffffffff160217905550600454600581905550806004819055505b6001600660003373ffffffffffffffffffffffffffffffffffffffff1673ffffffffffffffffffffffffffffffffffffffff16815260200190815260200160002060006101000a81548160ff021916908315150217905550600160026000828254039250508190555050565b60076020528060005260406000206000915090505481565b60055481565b60045481565b60086020528060005260406000206000915090505481565b60015481565b3373ffffffffffffffffffffffffffffffffffffffff166108fc600860003373ffffffffffffffffffffffffffffffffffffffff1673ffffffffffffffffffffffffffffffffffffffff168152602001908152602001600020549081150290604051600060405180830381858888f19350505050158015610735573d6000803e3d6000fd5b5056fea265627a7a72315820e875733cceb543c1ff9ae8fd8c31ef789b60f08b5d966be91bd9266caf42bf1764736f6c63430005100032",
  "source": "pragma solidity >=0.4.22 <0.8.0;\ncontract Auction {\n    //Address of the person selling\n    address public seller;\n\n    //The minimum reserve price given by the seller\n    uint256 public reservePrice;\n\n    //Variable for triggering the end of the bidding, can be replaced with time based system\n    uint256 public endOfBidding;\n\n    //Address of highest bidder so far\n    address public highBidder;\n\n    //Value of highest bid so far\n    uint256 public highBid;\n\n    //Value of second highest bid so far\n    uint256 public secondBid;\n\n    //Mapping that is used to check if the bid of a certain address has been processed\n    mapping(address => bool) public bidCheck;\n\n    //Mapping of the balances of all the bidders\n    mapping(address => uint256) public balanceBidders;\n\n    //Mapping of the balances of all the bidders\n    mapping(address => uint256) public amountBid;\n    \n    //Constructor\n    constructor (uint256 minPrice, uint256 numberOfBids) public {\n        //Set reserve price\n        reservePrice = minPrice;\n\n        //In this case, set endOfBidding limited by number of bids\n        endOfBidding = numberOfBids;\n\n        seller = msg.sender;\n        \n        //Set default highest,second highest bids to the reserve price, and highest bidder to the seller\n        highBidder = seller;\n        highBid = reservePrice;\n        secondBid = reservePrice;\n        bidCheck[seller] = true;\n    }\n\n    function Bid() public payable {\n        uint256 amount = msg.value;\n        require(endOfBidding != 0);\n        require(bidCheck[msg.sender] != true);\n        amountBid[msg.sender] = amount;\n        balanceBidders[msg.sender] += msg.sender.balance;\n        require(balanceBidders[msg.sender] >= reservePrice);\n        require(balanceBidders[msg.sender] >= amount);\n        if (amount > highBid) {\n            \n            highBidder = msg.sender;\n            secondBid = highBid;\n            highBid = amount;\n        }\n        bidCheck[msg.sender] = true;\n        endOfBidding -= 1;\n    }\n    function balanceof() external view returns(uint){\n        return address(this).balance;\n    }\n    function endAuction() public payable{\n        msg.sender.transfer(amountBid[msg.sender]);\n    }\n}",
  "sourcePath": "/home/shaik/BC/Ass1/Blockchain_QueensRevenge/contracts/Auction.sol",
  "compiler": {
    "name": "solc",
    "version": "0.5.16+commit.9c3226ce.Emscripten.clang"
  },
  "schemaVersion": "3.2.4",
  "updatedAt": "2020-08-31T21:05:09.854Z",
  "networkType": "ethereum",
  "devdoc": {
    "methods": {}
  },
  "userdoc": {
    "methods": {}
  }
}