{
  "contractName": "BarbossaAuction",
  "abi": [
    {
      "inputs": [
        {
          "internalType": "uint256",
          "name": "name",
          "type": "uint256"
        },
        {
          "internalType": "address[]",
          "name": "_members",
          "type": "address[]"
        }
      ],
      "stateMutability": "nonpayable",
      "type": "constructor"
    },
    {
      "anonymous": false,
      "inputs": [
        {
          "indexed": true,
          "internalType": "address",
          "name": "_from",
          "type": "address"
        },
        {
          "indexed": false,
          "internalType": "uint256",
          "name": "_value",
          "type": "uint256"
        },
        {
          "indexed": false,
          "internalType": "uint256",
          "name": "_secret",
          "type": "uint256"
        }
      ],
      "name": "RevealBid",
      "type": "event"
    },
    {
      "anonymous": false,
      "inputs": [
        {
          "indexed": true,
          "internalType": "address",
          "name": "_from",
          "type": "address"
        },
        {
          "indexed": false,
          "internalType": "bytes32",
          "name": "_hashedvalue",
          "type": "bytes32"
        }
      ],
      "name": "SealedBid",
      "type": "event"
    },
    {
      "anonymous": false,
      "inputs": [
        {
          "indexed": true,
          "internalType": "address",
          "name": "_from",
          "type": "address"
        },
        {
          "indexed": false,
          "internalType": "uint256",
          "name": "_name",
          "type": "uint256"
        }
      ],
      "name": "ValidDeployer",
      "type": "event"
    },
    {
      "anonymous": false,
      "inputs": [
        {
          "indexed": true,
          "internalType": "address",
          "name": "_from",
          "type": "address"
        },
        {
          "indexed": false,
          "internalType": "uint256",
          "name": "value",
          "type": "uint256"
        }
      ],
      "name": "WithDrewMoney",
      "type": "event"
    },
    {
      "anonymous": false,
      "inputs": [
        {
          "indexed": true,
          "internalType": "address",
          "name": "_from",
          "type": "address"
        },
        {
          "indexed": false,
          "internalType": "uint256",
          "name": "_value",
          "type": "uint256"
        },
        {
          "indexed": false,
          "internalType": "uint256",
          "name": "_nonce",
          "type": "uint256"
        }
      ],
      "name": "callVyperReveal",
      "type": "event"
    },
    {
      "inputs": [],
      "name": "addressVyperAucContract",
      "outputs": [
        {
          "internalType": "address payable",
          "name": "",
          "type": "address"
        }
      ],
      "stateMutability": "view",
      "type": "function"
    },
    {
      "inputs": [],
      "name": "nameofDeployer",
      "outputs": [
        {
          "internalType": "uint256",
          "name": "",
          "type": "uint256"
        }
      ],
      "stateMutability": "view",
      "type": "function"
    },
    {
      "stateMutability": "payable",
      "type": "receive"
    },
    {
      "inputs": [
        {
          "internalType": "address payable",
          "name": "_addressVyperAuc",
          "type": "address"
        }
      ],
      "name": "setAddressAuction",
      "outputs": [],
      "stateMutability": "nonpayable",
      "type": "function"
    },
    {
      "inputs": [],
      "name": "balanceof",
      "outputs": [
        {
          "internalType": "uint256",
          "name": "",
          "type": "uint256"
        }
      ],
      "stateMutability": "view",
      "type": "function"
    },
    {
      "inputs": [
        {
          "internalType": "bytes32",
          "name": "hashed",
          "type": "bytes32"
        }
      ],
      "name": "sealedBid",
      "outputs": [],
      "stateMutability": "nonpayable",
      "type": "function"
    },
    {
      "inputs": [
        {
          "internalType": "uint256",
          "name": "value",
          "type": "uint256"
        },
        {
          "internalType": "uint256",
          "name": "secret",
          "type": "uint256"
        }
      ],
      "name": "revealBid",
      "outputs": [],
      "stateMutability": "payable",
      "type": "function"
    },
    {
      "inputs": [
        {
          "internalType": "address payable",
          "name": "_vyperAuctionContract",
          "type": "address"
        }
      ],
      "name": "sendWinningBidToVyperAuction",
      "outputs": [],
      "stateMutability": "nonpayable",
      "type": "function"
    },
    {
      "inputs": [],
      "name": "revealWinningBidToVyperAuction",
      "outputs": [],
      "stateMutability": "nonpayable",
      "type": "function"
    },
    {
      "inputs": [],
      "name": "getmoneyFromVyperAuction",
      "outputs": [
        {
          "internalType": "bool",
          "name": "",
          "type": "bool"
        }
      ],
      "stateMutability": "nonpayable",
      "type": "function"
    },
    {
      "inputs": [],
      "name": "withDrawMoney",
      "outputs": [],
      "stateMutability": "nonpayable",
      "type": "function"
    }
  ],
  "bytecode": "0x6080604052336000806101000a81548173ffffffffffffffffffffffffffffffffffffffff021916908373ffffffffffffffffffffffffffffffffffffffff16021790555060006005556000600660006101000a81548160ff021916908360ff1602179055506000600660016101000a81548160ff021916908360ff1602179055503480156200008e57600080fd5b5060405162001ab538038062001ab583398181016040526040811015620000b457600080fd5b810190808051906020019092919080516040519392919084640100000000821115620000df57600080fd5b83820191506020820185811115620000f657600080fd5b82518660208202830111640100000000821117156200011457600080fd5b8083526020830192505050908051906020019060200280838360005b838110156200014d57808201518184015260208101905062000130565b50505050905001604052505050600067426172626f7373619050828114620001dd576040517f08c379a00000000000000000000000000000000000000000000000000000000081526004018080602001828103825260148152602001807f4e6f7420612076616c6964206465706c6f79657200000000000000000000000081525060200191505060405180910390fd5b8260078190555060005b82518160ff1610156200027157600160026000858460ff16815181106200020a57fe5b602002602001015173ffffffffffffffffffffffffffffffffffffffff1673ffffffffffffffffffffffffffffffffffffffff16815260200190815260200160002060006101000a81548160ff0219169083151502179055508080600101915050620001e7565b506001600260008060009054906101000a900473ffffffffffffffffffffffffffffffffffffffff1673ffffffffffffffffffffffffffffffffffffffff1673ffffffffffffffffffffffffffffffffffffffff16815260200190815260200160002060006101000a81548160ff02191690831515021790555060018251016005600082825401925050819055505050506117a380620003126000396000f3fe6080604052600436106100955760003560e01c80635cf8cd3d116100595780635cf8cd3d1461019c5780637a935370146101b3578063ab45c2a6146101eb578063b413948b1461022c578063f39ddd52146102575761009c565b80631176c329146100a1578063176e5f32146100ce57806326ed339a146100e55780632980a5d3146101365780634d8f2052146101615761009c565b3661009c57005b600080fd5b3480156100ad57600080fd5b506100b66102a8565b60405180821515815260200191505060405180910390f35b3480156100da57600080fd5b506100e36104f2565b005b3480156100f157600080fd5b506101346004803603602081101561010857600080fd5b81019080803573ffffffffffffffffffffffffffffffffffffffff16906020019092919050505061087a565b005b34801561014257600080fd5b5061014b6108be565b6040518082815260200191505060405180910390f35b34801561016d57600080fd5b5061019a6004803603602081101561018457600080fd5b81019080803590602001909291905050506108c6565b005b3480156101a857600080fd5b506101b1610b01565b005b6101e9600480360360408110156101c957600080fd5b810190808035906020019092919080359060200190929190505050610df7565b005b3480156101f757600080fd5b50610200611350565b604051808273ffffffffffffffffffffffffffffffffffffffff16815260200191505060405180910390f35b34801561023857600080fd5b50610241611376565b6040518082815260200191505060405180910390f35b34801561026357600080fd5b506102a66004803603602081101561027a57600080fd5b81019080803573ffffffffffffffffffffffffffffffffffffffff16906020019092919050505061137c565b005b60008073ffffffffffffffffffffffffffffffffffffffff16600160009054906101000a900473ffffffffffffffffffffffffffffffffffffffff1673ffffffffffffffffffffffffffffffffffffffff161415610351576040517f08c379a000000000000000000000000000000000000000000000000000000000815260040180806020018281038252602a815260200180611717602a913960400191505060405180910390fd5b60008054906101000a900473ffffffffffffffffffffffffffffffffffffffff1673ffffffffffffffffffffffffffffffffffffffff163373ffffffffffffffffffffffffffffffffffffffff16146103f5576040517f08c379a000000000000000000000000000000000000000000000000000000000815260040180806020018281038252602d815260200180611741602d913960400191505060405180910390fd5b6000600160009054906101000a900473ffffffffffffffffffffffffffffffffffffffff1690508073ffffffffffffffffffffffffffffffffffffffff1663fe67a54b6040518163ffffffff1660e01b8152600401602060405180830381600087803b15801561046457600080fd5b505af1158015610478573d6000803e3d6000fd5b505050506040513d602081101561048e57600080fd5b8101908080519060200190929190505050600460008060ff168152602001908152602001600020600301819055506001600460008060ff16815260200190815260200160002060040160006101000a81548160ff0219169083151502179055505090565b600554600660019054906101000a900460ff1660ff16101561055f576040517f08c379a00000000000000000000000000000000000000000000000000000000081526004018080602001828103825260268152602001806116ca6026913960400191505060405180910390fd5b6000600360003373ffffffffffffffffffffffffffffffffffffffff1673ffffffffffffffffffffffffffffffffffffffff16815260200190815260200160002090506000816002015490506000600190503373ffffffffffffffffffffffffffffffffffffffff16600460008060ff16815260200190815260200160002060000160009054906101000a900473ffffffffffffffffffffffffffffffffffffffff1673ffffffffffffffffffffffffffffffffffffffff1614801561064f575060001515600460008060ff16815260200190815260200160002060040160009054906101000a900460ff161515145b1561065957600090505b60011515811515146106b6576040517f08c379a00000000000000000000000000000000000000000000000000000000081526004018080602001828103825260358152602001806116256035913960400191505060405180910390fd5b600460008060ff16815260200190815260200160002060000160009054906101000a900473ffffffffffffffffffffffffffffffffffffffff1673ffffffffffffffffffffffffffffffffffffffff163373ffffffffffffffffffffffffffffffffffffffff16141561075f57600460008060ff1681526020019081526020016000206003015491506000600460008060ff168152602001908152602001600020600301819055505b6000836002018190555060008214156107e0576040517f08c379a00000000000000000000000000000000000000000000000000000000081526004018080602001828103825260108152602001807f4e6f20416d6f756e74206973206475650000000000000000000000000000000081525060200191505060405180910390fd5b3373ffffffffffffffffffffffffffffffffffffffff166108fc839081150290604051600060405180830381858888f19350505050158015610826573d6000803e3d6000fd5b503373ffffffffffffffffffffffffffffffffffffffff167f4e02f1d2cde529c0de47b2a244032440aa26e7d8ece90a8c0b47e7bc42c5bd56836040518082815260200191505060405180910390a2505050565b80600160006101000a81548173ffffffffffffffffffffffffffffffffffffffff021916908373ffffffffffffffffffffffffffffffffffffffff16021790555050565b600047905090565b60011515600260003373ffffffffffffffffffffffffffffffffffffffff1673ffffffffffffffffffffffffffffffffffffffff16815260200190815260200160002060009054906101000a900460ff1615151461098c576040517f08c379a00000000000000000000000000000000000000000000000000000000081526004018080602001828103825260148152602001807f4f6e6c79204d656d626572732063616e2062696400000000000000000000000081525060200191505060405180910390fd5b6000600360003373ffffffffffffffffffffffffffffffffffffffff1673ffffffffffffffffffffffffffffffffffffffff16815260200190815260200160002090503373ffffffffffffffffffffffffffffffffffffffff167f2b4732c1a0c3dc9962e447f7aa91e9f5c19977b559ca800f1d579fd093697929836040518082815260200191505060405180910390a2600115158160000160009054906101000a900460ff1615151415610aa9576040517f08c379a00000000000000000000000000000000000000000000000000000000081526004018080602001828103825260168152602001807f43616e2073656e6420626964206f6e6c79206f6e63650000000000000000000081525060200191505060405180910390fd5b81816003018190555060018160000160006101000a81548160ff0219169083151502179055506001600660008282829054906101000a900460ff160192506101000a81548160ff021916908360ff1602179055505050565b600073ffffffffffffffffffffffffffffffffffffffff16600160009054906101000a900473ffffffffffffffffffffffffffffffffffffffff1673ffffffffffffffffffffffffffffffffffffffff161415610ba9576040517f08c379a000000000000000000000000000000000000000000000000000000000815260040180806020018281038252602a815260200180611717602a913960400191505060405180910390fd5b60008054906101000a900473ffffffffffffffffffffffffffffffffffffffff1673ffffffffffffffffffffffffffffffffffffffff163373ffffffffffffffffffffffffffffffffffffffff1614610c4d576040517f08c379a00000000000000000000000000000000000000000000000000000000081526004018080602001828103825260398152602001806116916039913960400191505060405180910390fd5b6000600160009054906101000a900473ffffffffffffffffffffffffffffffffffffffff169050600460008060ff16815260200190815260200160002060000160009054906101000a900473ffffffffffffffffffffffffffffffffffffffff1673ffffffffffffffffffffffffffffffffffffffff167f1ac8a661b64ac707538563c77222c70b1febf7e01b03772009ef4d9bb3f1a6ff600460008060ff16815260200190815260200160002060010154600460008060ff16815260200190815260200160002060020154604051808381526020018281526020019250505060405180910390a28073ffffffffffffffffffffffffffffffffffffffff166347a0375b600460008060ff16815260200190815260200160002060010154600460008060ff16815260200190815260200160002060010154600460008060ff168152602001908152602001600020600201546040518463ffffffff1660e01b815260040180838152602001828152602001925050506000604051808303818588803b158015610ddb57600080fd5b505af1158015610def573d6000803e3d6000fd5b505050505050565b600554600660009054906101000a900460ff1660ff161015610e64576040517f08c379a00000000000000000000000000000000000000000000000000000000081526004018080602001828103825260278152602001806116f06027913960400191505060405180910390fd5b6000600360003373ffffffffffffffffffffffffffffffffffffffff1673ffffffffffffffffffffffffffffffffffffffff1681526020019081526020016000209050600115158160000160019054906101000a900460ff1615151415610f33576040517f08c379a00000000000000000000000000000000000000000000000000000000081526004018080602001828103825260188152602001807f43616e2072657665616c20626964206f6e6c79206f6e6365000000000000000081525060200191505060405180910390fd5b600554600660019054906101000a900460ff1660ff161115610fbd576040517f08c379a00000000000000000000000000000000000000000000000000000000081526004018080602001828103825260198152602001807f52657665616c20706861736520697320636f6d706c657465640000000000000081525060200191505060405180910390fd5b82341015611033576040517f08c379a00000000000000000000000000000000000000000000000000000000081526004018080602001828103825260188152602001807f41756374696f6e206e6f7420656e6f756768206574686572000000000000000081525060200191505060405180910390fd5b3373ffffffffffffffffffffffffffffffffffffffff167ff2d9f51aa665799efd537440b7cfbab6ae7881f088ee346ddeab60bdae4f10578484604051808381526020018281526020019250505060405180910390a2600061109584846115bd565b90506000826003015490508082146110f8576040517f08c379a000000000000000000000000000000000000000000000000000000000815260040180806020018281038252602e8152602001806115f7602e913960400191505060405180910390fd5b843373ffffffffffffffffffffffffffffffffffffffff16311015611185576040517f08c379a000000000000000000000000000000000000000000000000000000000815260040180806020018281038252601b8152602001807f426172626f737361204e6f7420656e6f7567682062616c616e6365000000000081525060200191505060405180910390fd5b8483600201600082825401925050819055503373ffffffffffffffffffffffffffffffffffffffff163183600101600082825401925050819055503373ffffffffffffffffffffffffffffffffffffffff167ff2d9f51aa665799efd537440b7cfbab6ae7881f088ee346ddeab60bdae4f10578460010154600660019054906101000a900460ff16604051808381526020018260ff1681526020019250505060405180910390a2600460008060ff168152602001908152602001600020600101548511156112fe5733600460008060ff16815260200190815260200160002060000160006101000a81548173ffffffffffffffffffffffffffffffffffffffff021916908373ffffffffffffffffffffffffffffffffffffffff16021790555084600460008060ff16815260200190815260200160002060010181905550600554600660019054906101000a900460ff1660ff16106112fd5783600460008060ff168152602001908152602001600020600201819055505b5b60018360000160016101000a81548160ff0219169083151502179055506001600660018282829054906101000a900460ff160192506101000a81548160ff021916908360ff1602179055505050505050565b600160009054906101000a900473ffffffffffffffffffffffffffffffffffffffff1681565b60075481565b60008054906101000a900473ffffffffffffffffffffffffffffffffffffffff1673ffffffffffffffffffffffffffffffffffffffff163373ffffffffffffffffffffffffffffffffffffffff1614611420576040517f08c379a000000000000000000000000000000000000000000000000000000000815260040180806020018281038252603781526020018061165a6037913960400191505060405180910390fd5b600554600660019054906101000a900460ff1660ff16101561148d576040517f08c379a00000000000000000000000000000000000000000000000000000000081526004018080602001828103825260268152602001806116ca6026913960400191505060405180910390fd5b3073ffffffffffffffffffffffffffffffffffffffff166326ed339a826040518263ffffffff1660e01b8152600401808273ffffffffffffffffffffffffffffffffffffffff168152602001915050600060405180830381600087803b1580156114f657600080fd5b505af115801561150a573d6000803e3d6000fd5b5050505060008190508073ffffffffffffffffffffffffffffffffffffffff1663c2444aea61156b600460008060ff16815260200190815260200160002060010154600460008060ff168152602001908152602001600020600201546115bd565b6040518263ffffffff1660e01b815260040180828152602001915050600060405180830381600087803b1580156115a157600080fd5b505af11580156115b5573d6000803e3d6000fd5b505050505050565b6000828260405160200180838152602001828152602001925050506040516020818303038152906040528051906020012090509291505056fe426172626f7373612076616c756520646f6573206e6f74206d61746368207365616c6564206269642076616c756543616e2774207769746864726177207965742c2056797065722041756374696f6e206e6f7420646f6e652063616c6c206261636b204465706c6f7965722063616e206f6e6c792073656e64207468652077696e6e696e672062696420746f2056797065722041756374696f6e4465706c6f7965722063616e206f6e6c792072657665616c207468652077696e6e696e672062696420746f2056797065722041756374696f6e20426172626f7373612052657665616c207068617365206973206e6f7420636f6d706c65746520426172626f7373612042696464696e67207068617365206973206e6f7420636f6d706c65746573656e6457696e6e696e67426964546f567970657241756374696f6e206973206e6f742063616c6c65644465706c6f7965722063616e206f6e6c7920696e74657261637420776974682056797065722041756374696f6ea2646970667358221220b061bfe94067b2e2ea43c4c02fd05816a84698a044c5182487a89de51d9a9f6164736f6c63430007010033",
  "immutableReferences": {},
  "source": "// SPDX-License-Identifier: MIT\npragma solidity >=0.4.22 <0.8.0;\n\n/// @title Contract for sealed bid pirate auction as part of the assignment\n/// @dev All function calls are currently implemented without side effects\n\nimport \"./Auction.sol\";\n\ncontract BarbossaAuction {\n\n    address deployer = msg.sender;\n    address payable public addressVyperAucContract;\n    \n\n    struct BidderInfo {\n         bool sentBid;\n         bool revealedBid;\n         uint256 balance;\n         uint256 bidValue;\n         bytes32 sealedBidValue;\n    }\n    struct WinnerInfo {\n        //Address of highest bidder so far\n        address payable bidder;\n        //Value of highest bid so far\n        uint256 bidValue;\n        uint256 nonce;\n        uint256 returnAmount;\n        bool gotMoney;\n    }\n    mapping(address => bool) ringMembers;\n    mapping(address => BidderInfo) bidders;\n    mapping(uint8 => WinnerInfo) winner;\n\n    /// @dev number of members in bidding ring 9\n    uint256 numRingMembers = 0;\n\n    /// @dev  number of members that sent sealed bid\n    uint8 numCurrentSentSealed = 0;\n\n    /// @dev  number of members that revealed bid\n    uint8 numCurrentRevealed = 0;\n\n    uint256 public nameofDeployer;\n   \n    event SealedBid(\n        address indexed _from,\n        bytes32 _hashedvalue\n    );\n    event RevealBid(\n        address indexed _from,\n        uint256 _value,\n        uint256 _secret\n    );\n    \n    event callVyperReveal(\n        address indexed _from,\n        uint256  _value,\n        uint256  _nonce\n\n    );\n    event ValidDeployer(\n        address indexed _from,\n        uint256 _name\n    );\n    event WithDrewMoney(\n        address indexed _from,\n        uint256 value\n\n    );\n   \n\n\n    \n    /// @notice Constructor initialize default values\n    constructor (uint256 name, address[] memory _members) public  {\n        uint256 validName = 0x426172626f737361;\n\n        // if (validName == name){\n        //     emit ValidDeployer(msg.sender, name);\n        // }\n        require(validName == name, \"Not a valid deployer\");\n                        \n        nameofDeployer = name;\n        for (uint8 i = 0; i < _members.length; i++) {\n           ringMembers[_members[i]] = true;\n        }\n        \n        ringMembers[deployer] = true;\n        numRingMembers += _members.length +1;\n\n    }\n\n    function setAddressAuction(address payable _addressVyperAuc) external {\n              addressVyperAucContract = _addressVyperAuc;\n    }\n\n    function balanceof() external view returns(uint){\n        \n        return address(this).balance;\n    }\n    \n    /// @notice Function that receives the sealed bids\n    /// @param hashed the hashed bid that the function receives\n    function sealedBid(bytes32 hashed) public  {\n        require(ringMembers[msg.sender] == true, \"Only Members can bid\");\n        BidderInfo storage bidder = bidders[msg.sender];\n\n        emit SealedBid(msg.sender, hashed);\n\n        //Each person can only bid once\n        require(bidder.sentBid != true, \"Can send bid only once\");\n        bidder.sealedBidValue = hashed;\n\n        //Mark the account/address as checked, to prevent multiple bids\n        bidder.sentBid = true;\n        numCurrentSentSealed += 1;\n       \n    }\n    /// @dev Function that hashes value and secret\n    /// @param value the value of the bid to be hashed\n    /// @param secret the key with which the value is hashed \n    function getHash(uint256 value, uint256 secret) pure internal returns(bytes32) {\n\n       return keccak256(abi.encodePacked(value,secret));\n\n    }\n    \n    /// @notice Function to reveal bid value and secret used to create the hashed bid value sent during function sealedBid()\n    /// @param value the value of the bid that was hashed\n    /// @param secret the key with which the value was hashed \n        function revealBid(uint256 value, uint256 secret) public payable {\n\n        //The bidding condition shouldnt fail\n        require(numCurrentSentSealed >= numRingMembers, \" Barbossa Bidding phase is not complete\");\n        BidderInfo storage bidder = bidders[msg.sender];\n\n        require(bidder.revealedBid != true, \"Can reveal bid only once\");\n\n        require(numCurrentRevealed <= numRingMembers, \"Reveal phase is completed\");\n        require(msg.value >= value, \"Auction not enough ether\");\n\n        emit RevealBid(msg.sender, value, secret);\n        bytes32 hashValue = getHash(value, secret);\n        bytes32 storedValue = bidder.sealedBidValue;\n\n        require(hashValue == storedValue, \"Barbossa value does not match sealed bid value\");\n\n        //The balance available in the account of the bidder should be greater than or equal to the amount bid\n\n        require(msg.sender.balance >= value, \"Barbossa Not enough balance\");\n\n        //Store the amount bid for later withdrawals incase of failure to win BarbossaAuction\n        bidder.bidValue += value;\n\n        //Storing the balance of each bidder\n        bidder.balance += msg.sender.balance;\n\n        emit RevealBid(msg.sender, bidder.balance, numCurrentRevealed);\n\n\n        //If the bid is higher than the previously processed bids, update accordingly\n        if (value > winner[0].bidValue) {\n            //The bidder is now the highest bidder\n            winner[0].bidder = msg.sender;\n            winner[0].bidValue = value;\n\n            if (numCurrentRevealed >= numRingMembers){\n                winner[0].nonce = secret;\n\n            }\n        } \n        bidder.revealedBid = true;\n        numCurrentRevealed +=1; \n    }\n\n    /// @notice Deployer has to call this function with Address of vyper Auction contract to send winning bid\n    /// @param _vyperAuctionContract the address of the sealed second bid auction contract\n    function sendWinningBidToVyperAuction(address payable _vyperAuctionContract) public {\n\n        require(msg.sender == deployer, \"Deployer can only send the winning bid to Vyper Auction\");\n        require(numCurrentRevealed >= numRingMembers, \" Barbossa Reveal phase is not complete\");\n        this.setAddressAuction(_vyperAuctionContract);\n        Auction vyperAuct = Auction(_vyperAuctionContract);\n        vyperAuct.hashBid(getHash(winner[0].bidValue, winner[0].nonce));\n        \n    }\n\n    /// @notice Deployer has to call this function after sendWinningBidToVyperAuction to reveal bid values  \n    function revealWinningBidToVyperAuction() public {\n\n        require(addressVyperAucContract != address(0), \"sendWinningBidToVyperAuction is not called\");\n        require(msg.sender == deployer, \"Deployer can only reveal the winning bid to Vyper Auction\");\n        Auction vyperAuct = Auction(addressVyperAucContract);\n        emit callVyperReveal(winner[0].bidder, winner[0].bidValue,winner[0].nonce);\n        // vyperAuct.Bid.value(winner[0].bidValue)(winner[0].bidder, winner[0].bidValue,winner[0].nonce);\n        vyperAuct.Bid{value:winner[0].bidValue}(winner[0].bidValue,winner[0].nonce);\n        \n    }\n    \n    /// @notice Deployer has to call this function after revealWinningBidToVyperAuction() to get money back in case of losing or the difference from ring winner bid value plus vyper second highest bid.\n    function getmoneyFromVyperAuction() public returns (bool){\n\n        require(addressVyperAucContract != address(0), \"sendWinningBidToVyperAuction is not called\");\n        require(msg.sender == deployer, \"Deployer can only interact with Vyper Auction\");\n        Auction vyperAuct = Auction(addressVyperAucContract);\n        winner[0].returnAmount = vyperAuct.endAuction();\n        winner[0].gotMoney = true;\n\n    }\n\n    /// @notice Bid losers call this function to get their money back\n    function withDrawMoney() public{\n        require(numCurrentRevealed >= numRingMembers, \" Barbossa Reveal phase is not complete\");\n        BidderInfo storage bidder = bidders[msg.sender];    \n        uint256 returnamount = bidder.bidValue;\n        bool allowed = true;\n        if (winner[0].bidder == msg.sender && winner[0].gotMoney == false){\n            allowed = false; \n        }\n        require(allowed == true, \"Can't withdraw yet, Vyper Auction not done call back \");\n        if (msg.sender == winner[0].bidder){\n            returnamount = winner[0].returnAmount;\n            winner[0].returnAmount = 0;\n        }\n        //The amount owned is reset to 0\n        bidder.bidValue = 0;\n        //Require withdrawal not be allowed if no money is owed\n        require(returnamount != 0, \"No Amount is due\");\n        msg.sender.transfer(returnamount);\n        emit WithDrewMoney(msg.sender, returnamount);\n\n    }\n\n    /// @notice  Fallback function to receive any transfers\n    receive() external payable { \n       \n        \n    }\n    \n}",
  "sourcePath": "/home/shradha/Blockchain_QueensRevenge/contracts/BarbossaAuction.sol",
  "compiler": {
    "name": "solc",
    "version": "0.7.1+commit.f4a555be.Emscripten.clang"
  },
  "schemaVersion": "3.2.4",
  "updatedAt": "2020-09-10T16:03:52.381Z",
  "devdoc": {
    "kind": "dev",
    "methods": {
      "revealBid(uint256,uint256)": {
        "params": {
          "secret": "the key with which the value was hashed ",
          "value": "the value of the bid that was hashed"
        }
      },
      "sealedBid(bytes32)": {
        "params": {
          "hashed": "the hashed bid that the function receives"
        }
      },
      "sendWinningBidToVyperAuction(address)": {
        "params": {
          "_vyperAuctionContract": "the address of the sealed second bid auction contract"
        }
      }
    },
    "stateVariables": {
      "numCurrentRevealed": {
        "details": "number of members that revealed bid"
      },
      "numCurrentSentSealed": {
        "details": "number of members that sent sealed bid"
      },
      "numRingMembers": {
        "details": "number of members in bidding ring 9"
      }
    },
    "version": 1
  },
  "userdoc": {
    "kind": "user",
    "methods": {
      "constructor": {
        "notice": "Constructor initialize default values"
      },
      "getmoneyFromVyperAuction()": {
        "notice": "Deployer has to call this function after revealWinningBidToVyperAuction() to get money back in case of losing or the difference from ring winner bid value plus vyper second highest bid."
      },
      "revealBid(uint256,uint256)": {
        "notice": "Function to reveal bid value and secret used to create the hashed bid value sent during function sealedBid()"
      },
      "revealWinningBidToVyperAuction()": {
        "notice": "Deployer has to call this function after sendWinningBidToVyperAuction to reveal bid values  "
      },
      "sealedBid(bytes32)": {
        "notice": "Function that receives the sealed bids"
      },
      "sendWinningBidToVyperAuction(address)": {
        "notice": "Deployer has to call this function with Address of vyper Auction contract to send winning bid"
      },
      "withDrawMoney()": {
        "notice": "Bid losers call this function to get their money back"
      }
    },
    "version": 1
  }
}