{
  "contractName": "Enc",
  "abi": [
    {
      "constant": false,
      "inputs": [],
      "name": "ggwp",
      "outputs": [
        {
          "internalType": "bytes32",
          "name": "",
          "type": "bytes32"
        }
      ],
      "payable": false,
      "stateMutability": "nonpayable",
      "type": "function"
    }
  ],
  "bytecode": "0x6080604052348015600f57600080fd5b5060c18061001e6000396000f3fe6080604052348015600f57600080fd5b506004361060285760003560e01c8063373d3ab914602d575b600080fd5b60336049565b6040518082815260200191505060405180910390f35b600080607b90506000600a90508181604051602001808381526020018281526020019250505060405160208183030381529060405280519060200120925050509056fea265627a7a72315820f4e9d5650fe69935c73ec0ad9072e1e06588ceaf773780317d89b27884c5654064736f6c63430005100032",
  "source": "pragma solidity >=0.4.22 <0.8.0;\ncontract Enc {\n    function ggwp() public returns(bytes32){\n        uint256 a = 123;\n        uint256 b = 10;\n        return keccak256(abi.encodePacked(a,b));\n    }\n}",
  "sourcePath": "/home/shaik/BC/Blockchain_QueensRevenge/contracts/Enc.sol",
  "compiler": {
    "name": "solc",
    "version": "0.5.16+commit.9c3226ce.Emscripten.clang"
  },
  "schemaVersion": "3.2.4",
  "updatedAt": "2020-09-01T23:53:47.825Z",
  "networkType": "ethereum",
  "devdoc": {
    "methods": {}
  },
  "userdoc": {
    "methods": {}
  }
}